:100000000C945F000C9487000C9487000C9487007C
:100010000C9487000C9487000C9487000C94870044
:100020000C9487000C9487000C9487000C94870034
:100030000C9487000C9487000C9487000C94870024
:100040000C9474050C9487000C9421080C945308AC
:100050000C9487000C9487000C9487000C94870004
:100060000C9487000C948700000000080002010037
:100070000003040700000000000000000102040863
:100080001020408001020408102001020408102002
:10009000040404040404040402020202020203032E
:1000A0000303030300000000250028002B000000CC
:1000B0000000240027002A00FA0083080C01112404
:1000C0001FBECFEFD8E0DEBFCDBF11E0A0E0B1E0B2
:1000D000E8E4F5E102C005900D92AE34B107D9F71E
:1000E00022E0AEE4B1E001C01D92A332B207E1F715
:1000F00010E0CCEBD0E004C02297FE010E9465091D
:10010000C83BD107C9F70E94C7080C94970A0C9402
:10011000000026E040E855E260E070E082E891E00F
:100120000E94BF0784E180934E018FE491E00E941A
:1001300062038FE491E00E94E60384E691E00E946E
:10014000620384E691E00E94E60366E071E082E8E3
:1001500091E00C941A09CF93DF93C0E0D0E040E027
:1001600060E080E00E9467059B01AC01BE018FE466
:1001700091E00E9402052196CE31D10581F78FE4EE
:1001800091E00E94E603C0E0D0E040E060E080E063
:100190000E9467059B01AC01BE0184E691E00E94CC
:1001A00002052196CE31D10581F784E691E0DF91F9
:1001B000CF910C94E6038095853540F4982F990FE4
:1001C000980F492F60E0892F809512C08A3A40F439
:1001D0008555682F660F680F462F409580E008C050
:1001E00096E5980F892F880F890F682F609540E05A
:1001F0000C94670522E530E045E06EE170E08FE4A5
:1002000091E00E94DA0422E530E046E06EE170E021
:1002100084E691E00C94DA0484E691E00E944E03B7
:100220008FE491E00C944E03CF92DF92EF92FF9215
:100230000F931F93CF93DF9300E010E082E891E0EB
:100240000E94DC0618161906BCF1CFE4D1E0C12CDF
:10025000D12CE12CF12CCE010E947005E816F90694
:10026000B0F4CE010E947005BC01C6010E942D09A8
:10027000862F800F0E94DB009B01AC01B701CE01ED
:100280000E9402058FEFE81AF80AD394E4CFCE015A
:100290000E94E603659681E0C937D807C1F66091F0
:1002A0004E0170E080E090E00E94E1050F5F1F4F7B
:1002B000011585E0180711F6DF91CF911F910F917D
:1002C000FF90EF90DF90CF900895EF92FF920F9301
:1002D0001F93CF93DF931F92CDB7DEB782E891E0F3
:1002E0000E94DC060597D4F382E891E00E94F506AF
:1002F000E82E82E891E00E94F5068C0182E891E008
:100300000E94F506F82E82E891E00E94F506682F1B
:1003100082E891E069830E94F506482F69818F2D5C
:100320000E9467059B01AC0185E1E89E70011124E4
:10033000F701E15BFE4F7F01B8017727CF010E94F3
:100340000205C7010F90DF91CF911F910F91FF9090
:10035000EF900C94E603DF92EF92FF920F931F93BE
:10036000CF93DF9382E891E00E94DC060497D4F3F8
:1003700082E891E00E94F506C82F82E891E00E9491
:10038000F506F82E82E891E00E94F506E82E82E854
:1003900091E00E94F506D82E00E010E085E1C89FAC
:1003A000E0011124C15BDE4FCE010E9470050817E9
:1003B0001907C0F44D2D6E2D8F2D0E9467059B01EE
:1003C000AC01B801CE010E940205CE010E94E603F5
:1003D00060914E0170E080E090E00E94E1050F5FC7
:1003E0001F4FE2CFDF91CF911F910F91FF90EF90C0
:1003F000DF9008959F92AF92BF92CF92DF92EF92DB
:10040000FF920F931F93CF93DF9382E891E00E94B6
:10041000DC060497D4F382E891E00E94F506C82F29
:1004200082E891E00E94F506B82E82E891E00E94F1
:10043000F506A82E82E891E00E94F506982E8AE043
:10044000E82EF12C85E1C89FE0011124C15BDE4F4D
:1004500000E010E082E891E00E94DC061816190620
:100460000CF443C0C12CD12CCE010E947005C816DB
:10047000D90688F4492D6A2D8B2D0E9467059B01B2
:10048000AC01B601600F711FCE010E94020583E02E
:10049000C80ED11CE9CFCE010E94E60360914E0147
:1004A00070E080E090E00E94E105C12CD12CCE01EB
:1004B0000E947005C816D90668F4B601600F711F56
:1004C00020E030E0A901CE010E94020583E0C80EC1
:1004D000D11CEDCF0F5F1F4F0330110509F0BACFCC
:1004E00081E0E81AF10809F0B3CFDF91CF911F91B5
:1004F0000F91FF90EF90DF90CF90BF90AF909F90C3
:100500000895AF92BF92CF92DF92EF92FF920F9336
:100510001F93CF93DF9382E891E00E94DC061816C8
:100520001906CCF782E891E00E94F506E12CF12C47
:1005300095E1899FE0011124C15BDE4FCC24CA9470
:10054000D12C00E010E082E891E00E94DC06181651
:1005500019060CF449C0A12CB12CCE010E947005E3
:10056000A816B906A0F4C5018E0D9F1DB6010E9404
:100570002D090E94DB009B01AC01B501600F711FCA
:10058000CE010E94020583E0A80EB11CE6CFCE0189
:100590000E94E60360914E0170E080E090E00E94CE
:1005A000E105A12CB12CCE010E947005A816B90658
:1005B00068F4B501600F711F20E030E0A901CE01A1
:1005C0000E94020593E0A90EB11CEDCF0F5F1F4FF3
:1005D0000330110509F0B7CF8FEFE81AF80AE114DC
:1005E00091E0F90609F0ADCFDF91CF911F910F9106
:1005F000FF90EF90DF90CF90BF90AF90089582E88A
:1006000091E00E94DC060297D4F382E891E00E9418
:10061000F5068032A1F782E891E00E94F50699275D
:100620008530910559F16CF481309105F9F01CF495
:10063000892BD1F0089583309105E1F00497E1F022
:1006400008958D30910511F11CF40C97C9F00895AF
:100650008134910569F080389105F9F469E171E020
:1006600082E891E00C9414090C94AB000C946501A1
:100670000C9414010C94FA010C9481020C94AB01BB
:1006800080914E01853038F0855005C080914E0133
:10069000843608F48B5F80934E010895CF93DF93E7
:1006A000EC0188859985009711F00E94010A8E81DE
:1006B00087FD05C060E0DF91CF910C946D06DF915E
:1006C000CF910895CF93DF93EC018E8187FD07C012
:1006D00061E00E946D0660E08E810E94A60681E0C6
:1006E0008983DF91CF910895EF92FF920F931F932B
:1006F000CF93DF93EC017B0188859985009711F0FA
:100700000E94010A9D858A85981303C083E090E0CA
:1007100002C084E090E08E9D80018F9D100D9E9D13
:10072000100D11241D830C83C8010E94690999874B
:100730008887009741F0A80160E070E00E94900A6D
:10074000FB82EA8204C01D821C821B821A82DF9116
:10075000CF911F910F91FF90EF900895FC0121E040
:1007600095858285981320E0CB0136E09695879594
:100770003A95E1F7482F43704587CB0154E09695B1
:1007800087955A95E1F7382F33703287CB019695CC
:1007900087959695879583708387862F8370848746
:1007A00081E06F3F710511F008F080E08083808563
:1007B0009185892B51F091E0431390E0921729F035
:1007C00062817381CF010C9474030895CF92DF92FC
:1007D000EF92FF920F931F93CF93DF93CDB7DEB7C6
:1007E00029970FB6F894DEBF0FBECDBF8C01DC0198
:1007F00018968D919C911997892B09F49AC00E94A3
:10080000BE05F801C684D784E088F1886C197D099B
:100810008E099F09623371058105910580F3F89473
:10082000848195819A838983A085B1857D01EFEFCD
:10083000EE1AFE0A8C918987D8019C9152960D90F0
:10084000BC91A02DF8018489992309F42EC09C91B4
:10085000982B98879C91809589238F838F818E8395
:1008600088E08D8358856F8149853D812E818981FE
:100870009A81F7015C9347FD252F3A952C93262FFB
:1008800039F0441F00C000006C93000000C0F2CF9C
:1008900038E041916C930000019761F7F801B38B48
:1008A000A28B49873D832E8338C09C91982B9887D3
:1008B0009C91809589238F838F818C8388E08B83A3
:1008C00058856F8149853B812C8189819A81F70107
:1008D0005C9347FD252F00C000C02C9300C000C0D2
:1008E00000C000C000C06C930000262F3A9541F074
:1008F000441F000000C000C000C000C000C0E8CF1E
:1009000038E0419100C06C9300C0019709F7F801ED
:10091000B38BA28B49873B832C839A8389837894FA
:100920000E94BE05D8011E966D937D938D939C9376
:10093000519729960FB6F894DEBF0FBECDBFDF9159
:10094000CF911F910F91FF90EF90DF90CF9008957E
:100950001F93CF93DF93EC01162F8981882331F009
:100960008E8187FD03C060E00E946D061E83898131
:10097000882341F061E0812F0E946D0660E0812FA5
:100980000E94A606812F90E0FC01E057FF4FE49102
:10099000F0E0EE0FFF1FEC55FF4F259134913B8B9C
:1009A0002A8BFC01E458FF4F84918C8BDF91CF910F
:1009B0001F910895EF92FF920F931F93CF93DF93B0
:1009C0001F92CDB7DEB77C018B01FC01118217822B
:1009D0001186108616861786108A118AB9014983F6
:1009E0000E94AE03B801C7010E9474034981642FBD
:1009F000C7010F90DF91CF911F910F91FF90EF9062
:100A00000C94A804CF92DF92EF92FF920F931F9362
:100A1000CF93DF93FC01828193816817790708F0F7
:100A20004DC0CA01AA27BB27182FC32ED42EE52EEE
:100A3000FF24DC2DC22F0781002361F0809FC001BD
:100A40001124192FC09E60011124DD2D209FC001AB
:100A50001124C92FF5848285A085B185F81208C0BC
:100A6000CB01880F991F860F971F8A0F9B1F17C0F6
:100A7000CB01880F991F880F991F8A0F9B1F452F45
:100A8000552766277727DC01AF0DB11D002329F01C
:100A9000409F90011124232F01C0242F2C932285E5
:100AA000DC01A20FB11D1C932385DC01A20FB11D37
:100AB000DC932485FC01E20FF11DC083DF91CF910F
:100AC0001F910F91FF90EF90DF90CF900895962F98
:100AD00050E060E070E0592B682BCB01BA0108951B
:100AE000FC018281938108951F920F920FB60F929D
:100AF00011242F933F938F939F93AF93BF93809134
:100B00007A0190917B01A0917C01B0917D0130919F
:100B1000790123E0230F2D3720F40196A11DB11D8B
:100B200005C026E8230F0296A11DB11D209379016F
:100B300080937A0190937B01A0937C01B0937D0117
:100B400080917E0190917F01A0918001B0918101FF
:100B50000196A11DB11D80937E0190937F01A0930A
:100B60008001B0938101BF91AF919F918F913F918F
:100B70002F910F900FBE0F901F9018953FB7F894CC
:100B800080917E0190917F01A0918001B0918101BF
:100B900026B5A89B05C02F3F19F00196A11DB11DD8
:100BA0003FBF6627782F892F9A2F620F711D811DF5
:100BB000911D42E0660F771F881F991F4A95D1F754
:100BC0000895CF92DF92EF92FF92CF93DF936B0164
:100BD0007C010E94BE05EB01C114D104E104F104C3
:100BE00089F00E942C090E94BE056C1B7D0B683E9B
:100BF000734090F381E0C81AD108E108F108C851A8
:100C0000DC4FEACFDF91CF91FF90EF90DF90CF9054
:100C10000895789484B5826084BD84B5816084BD74
:100C200085B5826085BD85B5816085BDEEE6F0E065
:100C3000808181608083E1E8F0E0108280818260C1
:100C40008083808181608083E0E8F0E08081816042
:100C50008083E1EBF0E0808184608083E0EBF0E072
:100C6000808181608083EAE7F0E080818460808316
:100C700080818260808380818160808380818068C0
:100C800080831092C1000895833081F028F4813070
:100C900099F08230A1F008958730A9F08830B9F03A
:100CA0008430D1F4809180008F7D03C080918000DA
:100CB0008F7780938000089584B58F7702C084B5C4
:100CC0008F7D84BD08958091B0008F7703C080919F
:100CD000B0008F7D8093B0000895CF93DF9390E0B4
:100CE000FC01E458FF4F2491FC01E057FF4F849131
:100CF000882349F190E0880F991FFC01E255FF4FCE
:100D0000A591B4918C559F4FFC01C591D4919FB78B
:100D1000611108C0F8948C91209582238C9388816E
:100D200082230AC0623051F4F8948C91322F3095AE
:100D300083238C938881822B888304C0F8948C91C0
:100D4000822B8C939FBFDF91CF9108950F931F93B8
:100D5000CF93DF931F92CDB7DEB7282F30E0F90194
:100D6000E859FF4F8491F901E458FF4F1491F901BC
:100D7000E057FF4F04910023C9F0882321F06983D5
:100D80000E9444066981E02FF0E0EE0FFF1FEC5552
:100D9000FF4FA591B4919FB7F8948C91611103C056
:100DA0001095812301C0812B8C939FBF0F90DF9101
:100DB000CF911F910F910895FC01818D228D90E0BC
:100DC000805C9F4F821B91098F7399270895FC01C6
:100DD000918D828D981731F0828DE80FF11D858DF0
:100DE00090E008958FEF9FEF0895FC01918D828D23
:100DF000981761F0828DDF01A80FB11D5D968C916F
:100E0000928D9F5F9F73928F90E008958FEF9FEF79
:100E1000089589E798E0892B49F080E090E0892BDC
:100E200029F00E94790881110C9400000895FC01BA
:100E3000848DDF01A80FB11DA35ABF4F2C91848D63
:100E400090E001968F739927848FA689B7892C9398
:100E5000A089B1898C9180648C93938D848D981333
:100E600006C00288F389E02D80818F7D80830895FC
:100E7000CF93DF93EC01888D8823C9F0EA89FB8941
:100E8000808185FD05C0A889B9898C9186FD0FC038
:100E90000FB607FCF5CF808185FFF2CFA889B9890D
:100EA0008C9185FFEDCFCE010E941707E7CFDF9130
:100EB000CF910895CF92DF92FF920F931F93CF931C
:100EC000DF931F92CDB7DEB76C0181E0D601589653
:100ED0008C9358975B969C915B975C968C915C97F2
:100EE000981307C05096ED91FC915197808185FD34
:100EF0002EC0F601038D10E00F5F1F4F0F731127F7
:100F0000F02EF601848DF81211C00FB607FCF9CF50
:100F1000D6015096ED91FC915197808185FFF1CFDC
:100F2000C60169830E9417076981EBCF838DE80FA3
:100F3000F11DE35AFF4F6083D6015B960C935B97DC
:100F40005296ED91FC915397808180620CC0D6013E
:100F50005696ED91FC91579760835096ED91FC91D8
:100F6000519780818064808381E090E00F90DF91D1
:100F7000CF911F910F91FF90DF90CF900895BF9276
:100F8000CF92DF92EF92FF92CF93DF93EC016A0151
:100F90007B01B22EE889F98982E08083411581EED8
:100FA000580761057105A1F060E079E08DE390E0FC
:100FB000A70196010E9441092150310941095109B7
:100FC0005695479537952795211580E1380798F074
:100FD000E889F989108260E874E88EE190E0A70161
:100FE00096010E9441092150310941095109569544
:100FF000479537952795EC85FD853083EE85FF85F0
:101000002083188EEC89FD89B082EA89FB89808172
:1010100080618083EA89FB89808188608083EA8996
:10102000FB89808180688083EA89FB8980818F7D4C
:101030008083DF91CF91FF90EF90DF90CF90BF90B2
:1010400008951F920F920FB60F9211242F938F9332
:101050009F93EF93FF93E0919201F0919301808130
:10106000E0919801F091990182FD12C090818091E8
:101070009B018F5F8F7320919C01821751F0E0914B
:101080009B01F0E0EE57FE4F958F80939B0101C0CE
:101090008081FF91EF919F918F912F910F900FBEC3
:1010A0000F901F9018951F920F920FB60F92112458
:1010B0002F933F934F935F936F937F938F939F9360
:1010C000AF93BF93EF93FF9382E891E00E941707DD
:1010D000FF91EF91BF91AF919F918F917F916F9110
:1010E0005F914F913F912F910F900FBE0F901F90E6
:1010F000189582E891E00E94DC0621E0892B09F432
:1011000020E0822F0895109285011092840188EECC
:1011100093E0A0E0B0E08093860190938701A093D4
:101120008801B093890180E391E0909383018093DB
:10113000820185EC90E090938F0180938E0184EC86
:1011400090E0909391018093900180EC90E09093D7
:1011500093018093920181EC90E0909395018093AC
:10116000940182EC90E0909397018093960186EC35
:1011700090E0909399018093980110929B011092B6
:101180009C0110929D0110929E01089508950E9465
:1011900009060E94C6080E948900C9E0D7E00E94A3
:1011A000FF022097E1F30E940907F9CFCF92DF9267
:1011B000EF92FF920F931F93CF93DF937C016A010D
:1011C000EB0100E010E00C151D0571F06991D701ED
:1011D000ED91FC910190F081E02DC7010995892BDB
:1011E00019F00F5F1F4FEFCFC801DF91CF911F9113
:1011F0000F91FF90EF90DF90CF90089561157105EA
:1012000081F0DB010D900020E9F7AD01415051095B
:10121000461B570BDC01ED91FC910280F381E02D20
:10122000099480E090E008950C94FE086CE371E06E
:101230000C94FE080F931F93CF93DF93EC010E9451
:10124000FE088C01CE010E941609800F911FDF91CC
:10125000CF911F910F9108950895AA1BBB1B51E1D7
:1012600007C0AA1FBB1FA617B70710F0A61BB70B16
:10127000881F991F5A95A9F780959095BC01CD01BB
:101280000895A1E21A2EAA1BBB1BFD010DC0AA1FC7
:10129000BB1FEE1FFF1FA217B307E407F50720F0DF
:1012A000A21BB30BE40BF50B661F771F881F991F5A
:1012B0001A9469F760957095809590959B01AC01A3
:1012C000BD01CF010895EE0FFF1F0590F491E02DB1
:1012D0000994CF93DF938230910510F482E090E07F
:1012E000E0912102F091220220E030E0A0E0B0E0A5
:1012F000309739F14081518148175907B8F04817A4
:10130000590771F482819381109729F013969C9369
:101310008E9312972CC0909322028093210227C0B3
:101320002115310531F04217530718F0A901DB01EF
:1013300001C0EF019A01BD01DF010280F381E02DC0
:10134000D7CF21153105F9F0281B390B2430310591
:1013500080F48A819B816115710521F0FB019383E3
:10136000828304C09093220280932102FE01329670
:1013700044C0FE01E20FF31F819391932250310983
:10138000398328833AC020911F0230912002232BF9
:1013900041F4209102013091030130932002209307
:1013A0001F0220910001309101012115310541F406
:1013B0002DB73EB74091040150910501241B350B18
:1013C000E0911F02F0912002E217F307A0F42E1B18
:1013D0003F0B2817390778F0AC014E5F5F4F241799
:1013E000350748F04E0F5F1F5093200240931F02B5
:1013F0008193919302C0E0E0F0E0CF01DF91CF91C3
:101400000895CF93DF93009709F487C0FC013297CA
:1014100013821282C0912102D0912202209781F47E
:1014200020813181280F391F80911F029091200265
:101430008217930779F5F0932002E0931F026DC0A5
:10144000DE0120E030E0AE17BF0750F412964D9158
:101450005C9113979D014115510509F1DA01F3CF14
:10146000B383A28340815181840F951F8A179B0704
:1014700071F48D919C911197840F951F0296918321
:10148000808312968D919C9113979383828321156B
:10149000310529F4F0932202E09321023EC0D901E4
:1014A0001396FC93EE9312974D915D91A40FB51F87
:1014B000EA17FB0779F480819181840F951F0296CA
:1014C000D90111969C938E938281938113969C935C
:1014D0008E931297E0E0F0E08A819B81009719F0EB
:1014E000FE01EC01F9CFCE01029628813981820FED
:1014F000931F20911F02309120022817390769F4A9
:10150000309729F4109222021092210202C0138215
:101510001282D0932002C0931F02DF91CF910895D1
:10152000DC0101C06D9341505040E0F7089510E098
:10153000CCEBD0E004C0FE010E9465092296CE3BB0
:08154000D107C9F7F894FFCFB1
:101548000000230280003C41726475696E6F206957
:10155800732072656164793E0048454C4C4F2046C3
:10156800524F4D2041524455494E4F000000000053
:101578005A07D608DC06F506E70638070D0A006E96
:0E158800616E00696E66006F7666002E0000D0
:00000001FF
